{
    "contractName": "Raffle",
    "abi": [
        {
            "inputs": [
                {
                    "internalType": "uint256",
                    "name": "entranceFee",
                    "type": "uint256"
                },
                {
                    "internalType": "uint256",
                    "name": "interval",
                    "type": "uint256"
                },
                {
                    "internalType": "address",
                    "name": "_vrfCoordinator",
                    "type": "address"
                },
                {
                    "internalType": "bytes32",
                    "name": "gaselane",
                    "type": "bytes32"
                },
                {
                    "internalType": "uint256",
                    "name": "SubscriptionId",
                    "type": "uint256"
                },
                {
                    "internalType": "uint32",
                    "name": "callbackGasLimit",
                    "type": "uint32"
                }
            ],
            "stateMutability": "nonpayable",
            "type": "constructor"
        },
        {
            "inputs": [],
            "name": "NotEnoughEthEntered",
            "type": "error"
        },
        {
            "inputs": [
                {
                    "internalType": "address",
                    "name": "have",
                    "type": "address"
                },
                {
                    "internalType": "address",
                    "name": "want",
                    "type": "address"
                }
            ],
            "name": "OnlyCoordinatorCanFulfill",
            "type": "error"
        },
        {
            "inputs": [
                {
                    "internalType": "address",
                    "name": "have",
                    "type": "address"
                },
                {
                    "internalType": "address",
                    "name": "owner",
                    "type": "address"
                },
                {
                    "internalType": "address",
                    "name": "coordinator",
                    "type": "address"
                }
            ],
            "name": "OnlyOwnerOrCoordinator",
            "type": "error"
        },
        {
            "inputs": [],
            "name": "ZeroAddress",
            "type": "error"
        },
        {
            "anonymous": false,
            "inputs": [
                {
                    "indexed": false,
                    "internalType": "address",
                    "name": "vrfCoordinator",
                    "type": "address"
                }
            ],
            "name": "CoordinatorSet",
            "type": "event"
        },
        {
            "anonymous": false,
            "inputs": [
                {
                    "indexed": true,
                    "internalType": "address",
                    "name": "from",
                    "type": "address"
                },
                {
                    "indexed": true,
                    "internalType": "address",
                    "name": "to",
                    "type": "address"
                }
            ],
            "name": "OwnershipTransferRequested",
            "type": "event"
        },
        {
            "anonymous": false,
            "inputs": [
                {
                    "indexed": true,
                    "internalType": "address",
                    "name": "from",
                    "type": "address"
                },
                {
                    "indexed": true,
                    "internalType": "address",
                    "name": "to",
                    "type": "address"
                }
            ],
            "name": "OwnershipTransferred",
            "type": "event"
        },
        {
            "anonymous": false,
            "inputs": [
                {
                    "indexed": true,
                    "internalType": "address",
                    "name": "player",
                    "type": "address"
                }
            ],
            "name": "RaffleEntered",
            "type": "event"
        },
        {
            "inputs": [],
            "name": "I_ENTRANCEFEE",
            "outputs": [
                {
                    "internalType": "uint256",
                    "name": "",
                    "type": "uint256"
                }
            ],
            "stateMutability": "view",
            "type": "function"
        },
        {
            "inputs": [],
            "name": "acceptOwnership",
            "outputs": [],
            "stateMutability": "nonpayable",
            "type": "function"
        },
        {
            "inputs": [],
            "name": "enterRaffle",
            "outputs": [],
            "stateMutability": "payable",
            "type": "function"
        },
        {
            "inputs": [],
            "name": "getEntranceFee",
            "outputs": [
                {
                    "internalType": "uint256",
                    "name": "",
                    "type": "uint256"
                }
            ],
            "stateMutability": "view",
            "type": "function"
        },
        {
            "inputs": [],
            "name": "owner",
            "outputs": [
                {
                    "internalType": "address",
                    "name": "",
                    "type": "address"
                }
            ],
            "stateMutability": "view",
            "type": "function"
        },
        {
            "inputs": [],
            "name": "pickWinner",
            "outputs": [],
            "stateMutability": "nonpayable",
            "type": "function"
        },
        {
            "inputs": [
                {
                    "internalType": "uint256",
                    "name": "requestId",
                    "type": "uint256"
                },
                {
                    "internalType": "uint256[]",
                    "name": "randomWords",
                    "type": "uint256[]"
                }
            ],
            "name": "rawFulfillRandomWords",
            "outputs": [],
            "stateMutability": "nonpayable",
            "type": "function"
        },
        {
            "inputs": [],
            "name": "s_vrfCoordinator",
            "outputs": [
                {
                    "internalType": "contract IVRFCoordinatorV2Plus",
                    "name": "",
                    "type": "address"
                }
            ],
            "stateMutability": "view",
            "type": "function"
        },
        {
            "inputs": [
                {
                    "internalType": "address",
                    "name": "_vrfCoordinator",
                    "type": "address"
                }
            ],
            "name": "setCoordinator",
            "outputs": [],
            "stateMutability": "nonpayable",
            "type": "function"
        },
        {
            "inputs": [
                {
                    "internalType": "address",
                    "name": "to",
                    "type": "address"
                }
            ],
            "name": "transferOwnership",
            "outputs": [],
            "stateMutability": "nonpayable",
            "type": "function"
        }
    ],
    "bytecode": "6101203461015b57601f6108e038819003918201601f19168301916001600160401b0383118484101761015f5780849260c09460405283398101031261015b578051602082015160408301516001600160a01b0381169392919084900361015b5760608301519160a060808501519401519463ffffffff8616860361015b573315610116575f80546001600160a01b03191633179055801561010757600280546001600160a01b0319169190911790554260045560805260e05260a05260c0526101005260405161076c9081610174823960805181818161059001526106f1015260a05181610410015260c05181610436015260e0518161037d015261010051816104710152f35b63d92e233d60e01b5f5260045ffd5b60405162461bcd60e51b815260206004820152601860248201527f43616e6e6f7420736574206f776e657220746f207a65726f00000000000000006044820152606490fd5b5f80fd5b634e487b7160e01b5f52604160045260245ffdfe60806040526004361015610011575f80fd5b5f3560e01c806309bc33a7146106da5780631fe543e31461065c5780632cfcc539146105835780635d495aea1461035f57806379ba5097146102b45780638c5f83ee146102af5780638da5cb5b146102885780638ea98117146101ae5780639eccacf6146101865763f2fde38b14610087575f80fd5b34610182576020366003190112610182576004356001600160a01b03811690819003610182575f546001600160a01b031633819003610144573382146100ff57600180546001600160a01b031916831790557fed8889f560326eb138920d842192f0eb3dd22b4f139c87a2c57538e05bae12785f80a3005b60405162461bcd60e51b815260206004820152601760248201527f43616e6e6f74207472616e7366657220746f2073656c660000000000000000006044820152606490fd5b60405162461bcd60e51b815260206004820152601660248201527527b7363c9031b0b63630b1363290313c9037bbb732b960511b6044820152606490fd5b5f80fd5b34610182575f366003190112610182576002546040516001600160a01b039091168152602090f35b34610182576020366003190112610182576004356001600160a01b03811690819003610182575f546001600160a01b03163381141580610273575b6102495750801561023a576020817fd1a6a14209a385a964d036e404cb5cfb71f4000cdb03c9366292430787261be6926bffffffffffffffffffffffff60a01b6002541617600255604051908152a1005b63d92e233d60e01b5f5260045ffd5b60025463061db9c160e01b5f908152336004526024929092526001600160a01b0316604452606490fd5b506002546001600160a01b03163314156101e9565b34610182575f366003190112610182575f546040516001600160a01b039091168152602090f35b6106da565b34610182575f366003190112610182576001546001600160a01b0381163303610321575f80546001600160a01b031980821633908117845593166001556001600160a01b0316907f8be0079c531659141344cd1fd0a4f28419497f9722a3daafe3b4186f6b6457e09080a3005b60405162461bcd60e51b815260206004820152601660248201527526bab9ba10313290383937b837b9b2b21037bbb732b960511b6044820152606490fd5b34610182575f36600319011261018257600454420342811161056f577f000000000000000000000000000000000000000000000000000000000000000011610182576040516020810181811067ffffffffffffffff82111761055b576040525f81526040519063125fa26760e31b60208301525115156024820152602481526103e9604482610714565b60405160c081019080821067ffffffffffffffff83111761055b5761ffff926020926040527f000000000000000000000000000000000000000000000000000000000000000082528282017f000000000000000000000000000000000000000000000000000000000000000081525f61010460408501946003865286606082019563ffffffff7f000000000000000000000000000000000000000000000000000000000000000016875263ffffffff608084016001815260a085019283528160018060a01b0360025416996040519d8e9c8d9b8c99634d8e1c2f60e11b8b528960048c01525160248b01525160448a01525116606488015251166084860152511660a48401525160c060c484015280519182918260e4860152018484015e8181018301849052601f01601f191681010301925af180156105505761052957005b602090813d8311610549575b61053f8183610714565b8101031261018257005b503d610535565b6040513d5f823e3d90fd5b634e487b7160e01b5f52604160045260245ffd5b634e487b7160e01b5f52601160045260245ffd5b5f366003190112610182577f000000000000000000000000000000000000000000000000000000000000000034101561064d576003546801000000000000000081101561055b576001810180600355811015610639577fc2575a0e9e593c00f959f8c92f12db2869c3395a3b0502d05e2516446f71f85b01336bffffffffffffffffffffffff60a01b825416179055337f634f3211e3a4e43fee5a21ad9f87ca153b300fc78b1c557a2057dbe9c63bcb475f80a2005b634e487b7160e01b5f52603260045260245ffd5b631ab4e45d60e11b5f5260045ffd5b346101825760403660031901126101825760243567ffffffffffffffff811161018257366023820112156101825780600401359067ffffffffffffffff821161018257602490369260051b010111610182576002546001600160a01b0316338190036106c457005b63073e64fd60e21b5f523360045260245260445ffd5b34610182575f3660031901126101825760206040517f00000000000000000000000000000000000000000000000000000000000000008152f35b90601f8019910116810190811067ffffffffffffffff82111761055b5760405256fea2646970667358221220b5e7d3fb77c3aec7103404eb222a5dfacc61227ae83ae882b993c36120b82ab164736f6c634300081e0033",
    "sourcePath": "c:/Users/Mir Mohmmad Luqman/Documents/Practice Projects/Foundry-Lottery/src/Raffle.sol",
    "compiler": {
        "name": "solc",
        "version": "0.8.30+commit.73712a01"
    },
    "functionHashes": {
        "I_ENTRANCEFEE()": "8c5f83ee",
        "acceptOwnership()": "79ba5097",
        "enterRaffle()": "2cfcc539",
        "getEntranceFee()": "09bc33a7",
        "owner()": "8da5cb5b",
        "pickWinner()": "5d495aea",
        "rawFulfillRandomWords(uint256,uint256[])": "1fe543e3",
        "s_vrfCoordinator()": "9eccacf6",
        "setCoordinator(address)": "8ea98117",
        "transferOwnership(address)": "f2fde38b"
    },
    "gasEstimates": {
        "creation": {
            "codeDepositCost": "380000",
            "executionCost": "infinite",
            "totalCost": "infinite"
        },
        "external": {
            "I_ENTRANCEFEE()": "infinite",
            "acceptOwnership()": "50236",
            "enterRaffle()": "infinite",
            "getEntranceFee()": "infinite",
            "owner()": "2403",
            "pickWinner()": "infinite",
            "rawFulfillRandomWords(uint256,uint256[])": "2457",
            "s_vrfCoordinator()": "2448",
            "setCoordinator(address)": "29913",
            "transferOwnership(address)": "28278"
        },
        "internal": {
            "fulfillRandomWords(uint256,uint256[] calldata)": "infinite"
        }
    }
}